:100000000C9462000C948A000C948A000C948A0070
:100010000C948A000C948A000C948A000C948A0038
:100020000C948A000C948A000C948A000C948A0028
:100030000C948A000C948A000C948A000C948A0018
:100040000C9438020C948A000C94A8020C9482023E
:100050000C948A000C948A000C948A000C948A00F8
:100060000C948A000C948A000000000023002600F3
:10007000290000000008000201000003040700003E
:1000800000000000000000000000250028002B00F8
:1000900000000000240027002A00040404040404D3
:1000A0000404020202020202030303030303010227
:1000B00004081020408001020408102001020408F6
:1000C0001020E30311241FBECFEFD8E0DEBFCDBF69
:1000D00011E0A0E0B1E0E4E7F8E002C005900D9285
:1000E000A631B107D9F721E0A6E1B1E001C01D9228
:1000F000AC3BB207E1F710E0C2E6D0E004C02197C4
:10010000FE010E943204C136D107C9F70E94DA020B
:100110000C9438040C940000CF93DF9390E0FC0122
:10012000E255FF4F249186569F4FFC01849188230E
:10013000C1F090E0880F991FFC01E057FF4FC59177
:10014000D491FC01EA57FF4FA591B4919FB7F89461
:100150008881E22FE0958E2388838C91E823EC93AD
:100160009FBFDF91CF91089590E0FC01EE58FF4FC3
:100170002491FC01E255FF4F3491FC01E656FF4FFC
:10018000E491EE23C1F1222339F02330E9F090F419
:10019000213001F1223011F1F0E0EE0FFF1FE8599C
:1001A000FF4FA591B491EC91E32381E090E029F514
:1001B00080E008952730A9F02830C9F0243061F795
:1001C000809180008F7D03C0809180008F77809325
:1001D0008000E2CF84B58F7784BDDECF84B58F7D7C
:1001E000FBCF8091B0008F778093B000D5CF809106
:1001F000B0008F7DF9CF80E090E008953FB7F8948C
:1002000080911B0190911C01A0911D01B0911E01D4
:1002100026B5A89B05C02F3F19F00196A11DB11D61
:100220003FBFBA2FA92F982F8827BC01CD01620F9D
:10023000711D811D911D42E0660F771F881F991F58
:100240004A95D1F70895AF92BF92CF92DF92EF9285
:10025000FF920F931F93CF93DF936C017B018B0170
:10026000040F151FEB015E01AE18BF08C017D107C0
:1002700059F06991D601ED91FC910190F081E02D4A
:10028000C6010995892B79F7C501DF91CF911F919F
:100290000F91FF90EF90DF90CF90BF90AF900895B7
:1002A000FC01538D448D252F30E0842F90E0821B7C
:1002B000930B541710F0CF96089501970895FC0101
:1002C000918D828D981761F0A28DAE0FBF2FB11D59
:1002D0005D968C91928D9F5F9F73928F90E00895B1
:1002E0008FEF9FEF0895FC01918D828D981731F06B
:1002F000828DE80FF11D858D90E008958FEF9FEFBF
:100300000895FC01918D228D892F90E0805C9F4F94
:10031000821B91098F73992708958FE191E00E94C4
:10032000810121E0892B09F420E0822F089580E0EB
:1003300090E0892B29F00E948D0181110C9400001E
:100340000895FC01A48DA80FB92FB11DA35ABF4F6A
:100350002C91848D90E001968F739927848FA689C4
:10036000B7892C93A089B1898C91837080648C9318
:10037000938D848D981306C00288F389E02D8081C7
:100380008F7D80830895EF92FF920F931F93CF93F9
:10039000DF93EC0181E0888F9B8D8C8D98131AC0C0
:1003A000E889F989808185FF15C09FB7F894EE89A7
:1003B000FF896083E889F989808183708064808304
:1003C0009FBF81E090E0DF91CF911F910F91FF904F
:1003D000EF900895F62E0B8D10E00F5F1F4F0F73F7
:1003E0001127E02E8C8D8E110CC00FB607FCFACFB2
:1003F000E889F989808185FFF5CFCE010E94A101AE
:10040000F1CFEB8DEC0FFD2FF11DE35AFF4FF08282
:100410009FB7F8940B8FEA89FB8980818062CFCFE8
:10042000CF93DF93EC01888D8823B9F0AA89BB892B
:10043000E889F9898C9185FD03C0808186FD0DC016
:100440000FB607FCF7CF8C9185FFF2CF808185FF37
:10045000EDCFCE010E94A101E9CFDF91CF910895A8
:1004600042E050E062E171E08FE191E00C94230101
:100470001F920F920FB60F9211242F933F938F93D9
:100480009F93AF93BF938091170190911801A09112
:100490001901B0911A013091160123E0230F2D3775
:1004A00058F50196A11DB11D2093160180931701E7
:1004B00090931801A0931901B0931A0180911B0128
:1004C00090911C01A0911D01B0911E010196A11DEA
:1004D000B11D80931B0190931C01A0931D01B0934B
:1004E0001E01BF91AF919F918F913F912F910F90DE
:1004F0000FBE0F901F90189526E8230F0296A11D9E
:10050000B11DD2CF1F920F920FB60F9211242F93CD
:100510003F934F935F936F937F938F939F93AF938B
:10052000BF93EF93FF938FE191E00E94A101FF91B0
:10053000EF91BF91AF919F918F917F916F915F915B
:100540004F913F912F910F900FBE0F901F901895D4
:100550001F920F920FB60F9211242F938F939F9398
:10056000EF93FF93E0912F01F09130018081E091B2
:100570003501F091360182FD1BC0908180913801D8
:100580008F5F8F7320913901821741F0E09138011C
:10059000F0E0E15EFE4F958F80933801FF91EF917F
:1005A0009F918F912F910F900FBE0F901F901895D4
:1005B0008081F4CFCF93DF93CDB7DEB7A1970FB68D
:1005C000F894DEBF0FBECDBF789484B5826084BD41
:1005D00084B5816084BD85B5826085BD85B5816047
:1005E00085BD80916E00816080936E0010928100C5
:1005F0008091810082608093810080918100816080
:100600008093810080918000816080938000809140
:10061000B10084608093B1008091B00081608093CC
:10062000B00080917A00846080937A0080917A0093
:10063000826080937A0080917A00816080937A0052
:1006400080917A00806880937A001092C100E091D6
:100650002F01F091300182E08083E0912B01F09135
:100660002C011082E0912D01F0912E018FEC8083FE
:1006700010923701E0913301F091340186E08083DC
:10068000E0913101F0913201808180618083E091BD
:100690003101F0913201808188608083E0913101E5
:1006A000F0913201808180688083E0913101F09186
:1006B000320180818F7D80838AE00E948C008BE0F4
:1006C0000E948C0080E4782E9AE0892E912CA12C37
:1006D000B12C00E010E08AE00E94B400019799F488
:1006E00061E28FE191E00E94C3010E9430020E940A
:1006F000FE000115110579F30E948D01882359F33D
:100700000E940000E8CF8BE00E94B400019741F303
:1007100070927C0080917A00806480937A0080914E
:100720007A0086FDFCCFC0907800D09079000D2C27
:10073000000CEE08FF08F7FE30C06DE28FE191E09B
:100740000E94C30122273327A9012C193D094E0914
:100750005F0919A2CE0181967C01CA01B901A501E8
:1007600094010E941004605DF70162937F012115DE
:1007700031054105510589F7E114F10409F4B5CFBC
:1007800001900020E9F73197AF014E195F09B701D9
:100790008FE191E00E942301A8CFA701960119A241
:1007A000CE0181967C01CA01B901A50194010E9484
:1007B0001004605DF70162937F0121153105410549
:1007C000510589F7D9CFEFE1F1E01382128288EE6B
:1007D00093E0A0E0B0E084839583A683B78384E0B0
:1007E00091E09183808385EC90E09587848784EC09
:1007F00090E09787868780EC90E0918B808B81ECEE
:1008000090E0938B828B82EC90E0958B848B86ECCE
:1008100090E0978B868B118E128E138E148E089516
:10082000A1E21A2EAA1BBB1BFD010DC0AA1FBB1FF4
:10083000EE1FFF1FA217B307E407F50720F0A21B66
:10084000B30BE40BF50B661F771F881F991F1A94D3
:1008500069F760957095809590959B01AC01BD01FD
:10086000CF010895EE0FFF1F0590F491E02D09943C
:04087000F894FFCF2A
:1008740000000000C30123015001100281015F0147
:0608840073010D0A0000E3
:00000001FF
